{
  "_format": "hh-sol-artifact-1",
  "contractName": "StringStorage",
  "sourceName": "contracts/StringStorage.sol",
  "abi": [
    {
      "anonymous": false,
      "inputs": [
        {
          "indexed": true,
          "internalType": "uint256",
          "name": "id",
          "type": "uint256"
        },
        {
          "indexed": false,
          "internalType": "string",
          "name": "value",
          "type": "string"
        }
      ],
      "name": "StringStored",
      "type": "event"
    },
    {
      "inputs": [],
      "name": "getAllStoredStrings",
      "outputs": [
        {
          "internalType": "string[]",
          "name": "",
          "type": "string[]"
        }
      ],
      "stateMutability": "view",
      "type": "function"
    },
    {
      "inputs": [
        {
          "internalType": "uint256",
          "name": "index",
          "type": "uint256"
        }
      ],
      "name": "getStringByIndex",
      "outputs": [
        {
          "internalType": "string",
          "name": "",
          "type": "string"
        }
      ],
      "stateMutability": "view",
      "type": "function"
    },
    {
      "inputs": [
        {
          "internalType": "string",
          "name": "_value",
          "type": "string"
        }
      ],
      "name": "storeString",
      "outputs": [],
      "stateMutability": "nonpayable",
      "type": "function"
    },
    {
      "inputs": [
        {
          "internalType": "uint256",
          "name": "",
          "type": "uint256"
        }
      ],
      "name": "storedStrings",
      "outputs": [
        {
          "internalType": "string",
          "name": "",
          "type": "string"
        }
      ],
      "stateMutability": "view",
      "type": "function"
    }
  ],
  "bytecode": "0x6080604052348015600f57600080fd5b50610c7e8061001f6000396000f3fe608060405234801561001057600080fd5b506004361061004c5760003560e01c80631bb8305d146100515780638df948311461006d578063e96224031461009d578063fe90d733146100cd575b600080fd5b61006b60048036038101906100669190610585565b6100eb565b005b61008760048036038101906100829190610604565b6101af565b60405161009491906106b0565b60405180910390f35b6100b760048036038101906100b29190610604565b61025b565b6040516100c491906106b0565b60405180910390f35b6100d5610352565b6040516100e291906107de565b60405180910390f35b600081511161012f576040517f08c379a00000000000000000000000000000000000000000000000000000000081526004016101269061084c565b60405180910390fd5b6000819080600181540180825580915050600190039060005260206000200160009091909190915090816101639190610a78565b5060016000805490506101769190610b79565b7e73b9f32bc5b2c870383e7aa1f8fc9bcf80d32f8b95788b9670cca8f05d8dcd826040516101a491906106b0565b60405180910390a250565b600081815481106101bf57600080fd5b9060005260206000200160009150905080546101da9061089b565b80601f01602080910402602001604051908101604052809291908181526020018280546102069061089b565b80156102535780601f1061022857610100808354040283529160200191610253565b820191906000526020600020905b81548152906001019060200180831161023657829003601f168201915b505050505081565b606060008054905082106102a4576040517f08c379a000000000000000000000000000000000000000000000000000000000815260040161029b90610bf9565b60405180910390fd5b600082815481106102b8576102b7610c19565b5b9060005260206000200180546102cd9061089b565b80601f01602080910402602001604051908101604052809291908181526020018280546102f99061089b565b80156103465780601f1061031b57610100808354040283529160200191610346565b820191906000526020600020905b81548152906001019060200180831161032957829003601f168201915b50505050509050919050565b60606000805480602002602001604051908101604052809291908181526020016000905b828210156104225783829060005260206000200180546103959061089b565b80601f01602080910402602001604051908101604052809291908181526020018280546103c19061089b565b801561040e5780601f106103e35761010080835404028352916020019161040e565b820191906000526020600020905b8154815290600101906020018083116103f157829003601f168201915b505050505081526020019060010190610376565b50505050905090565b6000604051905090565b600080fd5b600080fd5b600080fd5b600080fd5b6000601f19601f8301169050919050565b7f4e487b7100000000000000000000000000000000000000000000000000000000600052604160045260246000fd5b61049282610449565b810181811067ffffffffffffffff821117156104b1576104b061045a565b5b80604052505050565b60006104c461042b565b90506104d08282610489565b919050565b600067ffffffffffffffff8211156104f0576104ef61045a565b5b6104f982610449565b9050602081019050919050565b82818337600083830152505050565b6000610528610523846104d5565b6104ba565b90508281526020810184848401111561054457610543610444565b5b61054f848285610506565b509392505050565b600082601f83011261056c5761056b61043f565b5b813561057c848260208601610515565b91505092915050565b60006020828403121561059b5761059a610435565b5b600082013567ffffffffffffffff8111156105b9576105b861043a565b5b6105c584828501610557565b91505092915050565b6000819050919050565b6105e1816105ce565b81146105ec57600080fd5b50565b6000813590506105fe816105d8565b92915050565b60006020828403121561061a57610619610435565b5b6000610628848285016105ef565b91505092915050565b600081519050919050565b600082825260208201905092915050565b60005b8381101561066b578082015181840152602081019050610650565b60008484015250505050565b600061068282610631565b61068c818561063c565b935061069c81856020860161064d565b6106a581610449565b840191505092915050565b600060208201905081810360008301526106ca8184610677565b905092915050565b600081519050919050565b600082825260208201905092915050565b6000819050602082019050919050565b600082825260208201905092915050565b600061071a82610631565b61072481856106fe565b935061073481856020860161064d565b61073d81610449565b840191505092915050565b6000610754838361070f565b905092915050565b6000602082019050919050565b6000610774826106d2565b61077e81856106dd565b935083602082028501610790856106ee565b8060005b858110156107cc57848403895281516107ad8582610748565b94506107b88361075c565b925060208a01995050600181019050610794565b50829750879550505050505092915050565b600060208201905081810360008301526107f88184610769565b905092915050565b7f537472696e672063616e6e6f7420626520656d70747900000000000000000000600082015250565b600061083660168361063c565b915061084182610800565b602082019050919050565b6000602082019050818103600083015261086581610829565b9050919050565b7f4e487b7100000000000000000000000000000000000000000000000000000000600052602260045260246000fd5b600060028204905060018216806108b357607f821691505b6020821081036108c6576108c561086c565b5b50919050565b60008190508160005260206000209050919050565b60006020601f8301049050919050565b600082821b905092915050565b60006008830261092e7fffffffffffffffffffffffffffffffffffffffffffffffffffffffffffffffff826108f1565b61093886836108f1565b95508019841693508086168417925050509392505050565b6000819050919050565b600061097561097061096b846105ce565b610950565b6105ce565b9050919050565b6000819050919050565b61098f8361095a565b6109a361099b8261097c565b8484546108fe565b825550505050565b600090565b6109b86109ab565b6109c3818484610986565b505050565b5b818110156109e7576109dc6000826109b0565b6001810190506109c9565b5050565b601f821115610a2c576109fd816108cc565b610a06846108e1565b81016020851015610a15578190505b610a29610a21856108e1565b8301826109c8565b50505b505050565b600082821c905092915050565b6000610a4f60001984600802610a31565b1980831691505092915050565b6000610a688383610a3e565b9150826002028217905092915050565b610a8182610631565b67ffffffffffffffff811115610a9a57610a9961045a565b5b610aa4825461089b565b610aaf8282856109eb565b600060209050601f831160018114610ae25760008415610ad0578287015190505b610ada8582610a5c565b865550610b42565b601f198416610af0866108cc565b60005b82811015610b1857848901518255600182019150602085019450602081019050610af3565b86831015610b355784890151610b31601f891682610a3e565b8355505b6001600288020188555050505b505050505050565b7f4e487b7100000000000000000000000000000000000000000000000000000000600052601160045260246000fd5b6000610b84826105ce565b9150610b8f836105ce565b9250828203905081811115610ba757610ba6610b4a565b5b92915050565b7f496e646578206f7574206f6620626f756e647300000000000000000000000000600082015250565b6000610be360138361063c565b9150610bee82610bad565b602082019050919050565b60006020820190508181036000830152610c1281610bd6565b9050919050565b7f4e487b7100000000000000000000000000000000000000000000000000000000600052603260045260246000fdfea26469706673582212208dbceefec6613309b040f587d694e4f9c37e2bce066f2947c775c33f8fc84b5c64736f6c634300081c0033",
  "linkReferences": {},
  "deployedLinkReferences": {}
}