{"contracts/IntegerStorage.sol":{"IntegerStorage":{"abi":[{"anonymous":false,"inputs":[{"indexed":true,"internalType":"uint256","name":"value","type":"uint256"}],"name":"IntegerStored","type":"event"},{"inputs":[],"name":"getAllStoredValues","outputs":[{"internalType":"uint256[]","name":"","type":"uint256[]"}],"stateMutability":"view","type":"function"},{"inputs":[{"internalType":"uint256","name":"_value","type":"uint256"}],"name":"storeInteger","outputs":[],"stateMutability":"nonpayable","type":"function"},{"inputs":[{"internalType":"uint256","name":"","type":"uint256"}],"name":"storedIntegers","outputs":[{"internalType":"uint256","name":"","type":"uint256"}],"stateMutability":"view","type":"function"}],"evm":{"bytecode":{"linkReferences":{},"object":"6080604052348015600f57600080fd5b506103ed8061001f6000396000f3fe608060405234801561001057600080fd5b50600436106100415760003560e01c8063319120aa146100465780636d7638e814610076578063e4ac3fae14610094575b600080fd5b610060600480360381019061005b9190610203565b6100b0565b60405161006d919061023f565b60405180910390f35b61007e6100d4565b60405161008b9190610318565b60405180910390f35b6100ae60048036038101906100a99190610203565b61012c565b005b600081815481106100c057600080fd5b906000526020600020016000915090505481565b6060600080548060200260200160405190810160405280929190818152602001828054801561012257602002820191906000526020600020905b81548152602001906001019080831161010e575b5050505050905090565b6000811161016f576040517f08c379a000000000000000000000000000000000000000000000000000000000815260040161016690610397565b60405180910390fd5b6000819080600181540180825580915050600190039060005260206000200160009091909190915055807fb3e847b209d7e23c3fea7be796f2768c4f7572f929d4bb20911d520050e766d860405160405180910390a250565b600080fd5b6000819050919050565b6101e0816101cd565b81146101eb57600080fd5b50565b6000813590506101fd816101d7565b92915050565b600060208284031215610219576102186101c8565b5b6000610227848285016101ee565b91505092915050565b610239816101cd565b82525050565b60006020820190506102546000830184610230565b92915050565b600081519050919050565b600082825260208201905092915050565b6000819050602082019050919050565b61028f816101cd565b82525050565b60006102a18383610286565b60208301905092915050565b6000602082019050919050565b60006102c58261025a565b6102cf8185610265565b93506102da83610276565b8060005b8381101561030b5781516102f28882610295565b97506102fd836102ad565b9250506001810190506102de565b5085935050505092915050565b6000602082019050818103600083015261033281846102ba565b905092915050565b600082825260208201905092915050565b7f56616c7565206d7573742062652067726561746572207468616e207a65726f00600082015250565b6000610381601f8361033a565b915061038c8261034b565b602082019050919050565b600060208201905081810360008301526103b081610374565b905091905056fea2646970667358221220be3471869017cf977656422124e9fcff2aa51758377dc4417feda4749ebd41fb64736f6c634300081c0033","opcodes":"PUSH1 0x80 PUSH1 0x40 MSTORE CALLVALUE DUP1 ISZERO PUSH1 0xF JUMPI PUSH1 0x0 DUP1 REVERT JUMPDEST POP PUSH2 0x3ED DUP1 PUSH2 0x1F PUSH1 0x0 CODECOPY PUSH1 0x0 RETURN INVALID PUSH1 0x80 PUSH1 0x40 MSTORE CALLVALUE DUP1 ISZERO PUSH2 0x10 JUMPI PUSH1 0x0 DUP1 REVERT JUMPDEST POP PUSH1 0x4 CALLDATASIZE LT PUSH2 0x41 JUMPI PUSH1 0x0 CALLDATALOAD PUSH1 0xE0 SHR DUP1 PUSH4 0x319120AA EQ PUSH2 0x46 JUMPI DUP1 PUSH4 0x6D7638E8 EQ PUSH2 0x76 JUMPI DUP1 PUSH4 0xE4AC3FAE EQ PUSH2 0x94 JUMPI JUMPDEST PUSH1 0x0 DUP1 REVERT JUMPDEST PUSH2 0x60 PUSH1 0x4 DUP1 CALLDATASIZE SUB DUP2 ADD SWAP1 PUSH2 0x5B SWAP2 SWAP1 PUSH2 0x203 JUMP JUMPDEST PUSH2 0xB0 JUMP JUMPDEST PUSH1 0x40 MLOAD PUSH2 0x6D SWAP2 SWAP1 PUSH2 0x23F JUMP JUMPDEST PUSH1 0x40 MLOAD DUP1 SWAP2 SUB SWAP1 RETURN JUMPDEST PUSH2 0x7E PUSH2 0xD4 JUMP JUMPDEST PUSH1 0x40 MLOAD PUSH2 0x8B SWAP2 SWAP1 PUSH2 0x318 JUMP JUMPDEST PUSH1 0x40 MLOAD DUP1 SWAP2 SUB SWAP1 RETURN JUMPDEST PUSH2 0xAE PUSH1 0x4 DUP1 CALLDATASIZE SUB DUP2 ADD SWAP1 PUSH2 0xA9 SWAP2 SWAP1 PUSH2 0x203 JUMP JUMPDEST PUSH2 0x12C JUMP JUMPDEST STOP JUMPDEST PUSH1 0x0 DUP2 DUP2 SLOAD DUP2 LT PUSH2 0xC0 JUMPI PUSH1 0x0 DUP1 REVERT JUMPDEST SWAP1 PUSH1 0x0 MSTORE PUSH1 0x20 PUSH1 0x0 KECCAK256 ADD PUSH1 0x0 SWAP2 POP SWAP1 POP SLOAD DUP2 JUMP JUMPDEST PUSH1 0x60 PUSH1 0x0 DUP1 SLOAD DUP1 PUSH1 0x20 MUL PUSH1 0x20 ADD PUSH1 0x40 MLOAD SWAP1 DUP2 ADD PUSH1 0x40 MSTORE DUP1 SWAP3 SWAP2 SWAP1 DUP2 DUP2 MSTORE PUSH1 0x20 ADD DUP3 DUP1 SLOAD DUP1 ISZERO PUSH2 0x122 JUMPI PUSH1 0x20 MUL DUP3 ADD SWAP2 SWAP1 PUSH1 0x0 MSTORE PUSH1 0x20 PUSH1 0x0 KECCAK256 SWAP1 JUMPDEST DUP2 SLOAD DUP2 MSTORE PUSH1 0x20 ADD SWAP1 PUSH1 0x1 ADD SWAP1 DUP1 DUP4 GT PUSH2 0x10E JUMPI JUMPDEST POP POP POP POP POP SWAP1 POP SWAP1 JUMP JUMPDEST PUSH1 0x0 DUP2 GT PUSH2 0x16F JUMPI PUSH1 0x40 MLOAD PUSH32 0x8C379A000000000000000000000000000000000000000000000000000000000 DUP2 MSTORE PUSH1 0x4 ADD PUSH2 0x166 SWAP1 PUSH2 0x397 JUMP JUMPDEST PUSH1 0x40 MLOAD DUP1 SWAP2 SUB SWAP1 REVERT JUMPDEST PUSH1 0x0 DUP2 SWAP1 DUP1 PUSH1 0x1 DUP2 SLOAD ADD DUP1 DUP3 SSTORE DUP1 SWAP2 POP POP PUSH1 0x1 SWAP1 SUB SWAP1 PUSH1 0x0 MSTORE PUSH1 0x20 PUSH1 0x0 KECCAK256 ADD PUSH1 0x0 SWAP1 SWAP2 SWAP1 SWAP2 SWAP1 SWAP2 POP SSTORE DUP1 PUSH32 0xB3E847B209D7E23C3FEA7BE796F2768C4F7572F929D4BB20911D520050E766D8 PUSH1 0x40 MLOAD PUSH1 0x40 MLOAD DUP1 SWAP2 SUB SWAP1 LOG2 POP JUMP JUMPDEST PUSH1 0x0 DUP1 REVERT JUMPDEST PUSH1 0x0 DUP2 SWAP1 POP SWAP2 SWAP1 POP JUMP JUMPDEST PUSH2 0x1E0 DUP2 PUSH2 0x1CD JUMP JUMPDEST DUP2 EQ PUSH2 0x1EB JUMPI PUSH1 0x0 DUP1 REVERT JUMPDEST POP JUMP JUMPDEST PUSH1 0x0 DUP2 CALLDATALOAD SWAP1 POP PUSH2 0x1FD DUP2 PUSH2 0x1D7 JUMP JUMPDEST SWAP3 SWAP2 POP POP JUMP JUMPDEST PUSH1 0x0 PUSH1 0x20 DUP3 DUP5 SUB SLT ISZERO PUSH2 0x219 JUMPI PUSH2 0x218 PUSH2 0x1C8 JUMP JUMPDEST JUMPDEST PUSH1 0x0 PUSH2 0x227 DUP5 DUP3 DUP6 ADD PUSH2 0x1EE JUMP JUMPDEST SWAP2 POP POP SWAP3 SWAP2 POP POP JUMP JUMPDEST PUSH2 0x239 DUP2 PUSH2 0x1CD JUMP JUMPDEST DUP3 MSTORE POP POP JUMP JUMPDEST PUSH1 0x0 PUSH1 0x20 DUP3 ADD SWAP1 POP PUSH2 0x254 PUSH1 0x0 DUP4 ADD DUP5 PUSH2 0x230 JUMP JUMPDEST SWAP3 SWAP2 POP POP JUMP JUMPDEST PUSH1 0x0 DUP2 MLOAD SWAP1 POP SWAP2 SWAP1 POP JUMP JUMPDEST PUSH1 0x0 DUP3 DUP3 MSTORE PUSH1 0x20 DUP3 ADD SWAP1 POP SWAP3 SWAP2 POP POP JUMP JUMPDEST PUSH1 0x0 DUP2 SWAP1 POP PUSH1 0x20 DUP3 ADD SWAP1 POP SWAP2 SWAP1 POP JUMP JUMPDEST PUSH2 0x28F DUP2 PUSH2 0x1CD JUMP JUMPDEST DUP3 MSTORE POP POP JUMP JUMPDEST PUSH1 0x0 PUSH2 0x2A1 DUP4 DUP4 PUSH2 0x286 JUMP JUMPDEST PUSH1 0x20 DUP4 ADD SWAP1 POP SWAP3 SWAP2 POP POP JUMP JUMPDEST PUSH1 0x0 PUSH1 0x20 DUP3 ADD SWAP1 POP SWAP2 SWAP1 POP JUMP JUMPDEST PUSH1 0x0 PUSH2 0x2C5 DUP3 PUSH2 0x25A JUMP JUMPDEST PUSH2 0x2CF DUP2 DUP6 PUSH2 0x265 JUMP JUMPDEST SWAP4 POP PUSH2 0x2DA DUP4 PUSH2 0x276 JUMP JUMPDEST DUP1 PUSH1 0x0 JUMPDEST DUP4 DUP2 LT ISZERO PUSH2 0x30B JUMPI DUP2 MLOAD PUSH2 0x2F2 DUP9 DUP3 PUSH2 0x295 JUMP JUMPDEST SWAP8 POP PUSH2 0x2FD DUP4 PUSH2 0x2AD JUMP JUMPDEST SWAP3 POP POP PUSH1 0x1 DUP2 ADD SWAP1 POP PUSH2 0x2DE JUMP JUMPDEST POP DUP6 SWAP4 POP POP POP POP SWAP3 SWAP2 POP POP JUMP JUMPDEST PUSH1 0x0 PUSH1 0x20 DUP3 ADD SWAP1 POP DUP2 DUP2 SUB PUSH1 0x0 DUP4 ADD MSTORE PUSH2 0x332 DUP2 DUP5 PUSH2 0x2BA JUMP JUMPDEST SWAP1 POP SWAP3 SWAP2 POP POP JUMP JUMPDEST PUSH1 0x0 DUP3 DUP3 MSTORE PUSH1 0x20 DUP3 ADD SWAP1 POP SWAP3 SWAP2 POP POP JUMP JUMPDEST PUSH32 0x56616C7565206D7573742062652067726561746572207468616E207A65726F00 PUSH1 0x0 DUP3 ADD MSTORE POP JUMP JUMPDEST PUSH1 0x0 PUSH2 0x381 PUSH1 0x1F DUP4 PUSH2 0x33A JUMP JUMPDEST SWAP2 POP PUSH2 0x38C DUP3 PUSH2 0x34B JUMP JUMPDEST PUSH1 0x20 DUP3 ADD SWAP1 POP SWAP2 SWAP1 POP JUMP JUMPDEST PUSH1 0x0 PUSH1 0x20 DUP3 ADD SWAP1 POP DUP2 DUP2 SUB PUSH1 0x0 DUP4 ADD MSTORE PUSH2 0x3B0 DUP2 PUSH2 0x374 JUMP JUMPDEST SWAP1 POP SWAP2 SWAP1 POP JUMP INVALID LOG2 PUSH5 0x6970667358 0x22 SLT KECCAK256 0xBE CALLVALUE PUSH18 0x869017CF977656422124E9FCFF2AA5175837 PUSH30 0xC4417FEDA4749EBD41FB64736F6C634300081C0033000000000000000000 "},"methodIdentifiers":{"getAllStoredValues()":"6d7638e8","storeInteger(uint256)":"e4ac3fae","storedIntegers(uint256)":"319120aa"}}}}}