{
  "_format": "hh-sol-artifact-1",
  "contractName": "IntegerStorage",
  "sourceName": "contracts/IntegerStorage.sol",
  "abi": [
    {
      "anonymous": false,
      "inputs": [
        {
          "indexed": true,
          "internalType": "uint256",
          "name": "value",
          "type": "uint256"
        }
      ],
      "name": "IntegerStored",
      "type": "event"
    },
    {
      "inputs": [],
      "name": "getAllStoredValues",
      "outputs": [
        {
          "internalType": "uint256[]",
          "name": "",
          "type": "uint256[]"
        }
      ],
      "stateMutability": "view",
      "type": "function"
    },
    {
      "inputs": [
        {
          "internalType": "uint256",
          "name": "_value",
          "type": "uint256"
        }
      ],
      "name": "storeInteger",
      "outputs": [],
      "stateMutability": "nonpayable",
      "type": "function"
    },
    {
      "inputs": [
        {
          "internalType": "uint256",
          "name": "",
          "type": "uint256"
        }
      ],
      "name": "storedIntegers",
      "outputs": [
        {
          "internalType": "uint256",
          "name": "",
          "type": "uint256"
        }
      ],
      "stateMutability": "view",
      "type": "function"
    }
  ],
  "bytecode": "0x6080604052348015600f57600080fd5b506103ed8061001f6000396000f3fe608060405234801561001057600080fd5b50600436106100415760003560e01c8063319120aa146100465780636d7638e814610076578063e4ac3fae14610094575b600080fd5b610060600480360381019061005b9190610203565b6100b0565b60405161006d919061023f565b60405180910390f35b61007e6100d4565b60405161008b9190610318565b60405180910390f35b6100ae60048036038101906100a99190610203565b61012c565b005b600081815481106100c057600080fd5b906000526020600020016000915090505481565b6060600080548060200260200160405190810160405280929190818152602001828054801561012257602002820191906000526020600020905b81548152602001906001019080831161010e575b5050505050905090565b6000811161016f576040517f08c379a000000000000000000000000000000000000000000000000000000000815260040161016690610397565b60405180910390fd5b6000819080600181540180825580915050600190039060005260206000200160009091909190915055807fb3e847b209d7e23c3fea7be796f2768c4f7572f929d4bb20911d520050e766d860405160405180910390a250565b600080fd5b6000819050919050565b6101e0816101cd565b81146101eb57600080fd5b50565b6000813590506101fd816101d7565b92915050565b600060208284031215610219576102186101c8565b5b6000610227848285016101ee565b91505092915050565b610239816101cd565b82525050565b60006020820190506102546000830184610230565b92915050565b600081519050919050565b600082825260208201905092915050565b6000819050602082019050919050565b61028f816101cd565b82525050565b60006102a18383610286565b60208301905092915050565b6000602082019050919050565b60006102c58261025a565b6102cf8185610265565b93506102da83610276565b8060005b8381101561030b5781516102f28882610295565b97506102fd836102ad565b9250506001810190506102de565b5085935050505092915050565b6000602082019050818103600083015261033281846102ba565b905092915050565b600082825260208201905092915050565b7f56616c7565206d7573742062652067726561746572207468616e207a65726f00600082015250565b6000610381601f8361033a565b915061038c8261034b565b602082019050919050565b600060208201905081810360008301526103b081610374565b905091905056fea2646970667358221220be3471869017cf977656422124e9fcff2aa51758377dc4417feda4749ebd41fb64736f6c634300081c0033",
  "linkReferences": {},
  "deployedLinkReferences": {}
}