{
  "_format": "hh-sol-artifact-1",
  "contractName": "StringStorage",
  "sourceName": "contracts/SimpleStringContract.sol",
  "abi": [
    {
      "anonymous": false,
      "inputs": [
        {
          "indexed": false,
          "internalType": "string",
          "name": "newValue",
          "type": "string"
        }
      ],
      "name": "StringStored",
      "type": "event"
    },
    {
      "inputs": [],
      "name": "getAllStrings",
      "outputs": [
        {
          "internalType": "string[]",
          "name": "",
          "type": "string[]"
        }
      ],
      "stateMutability": "view",
      "type": "function"
    },
    {
      "inputs": [
        {
          "internalType": "string",
          "name": "_newValue",
          "type": "string"
        }
      ],
      "name": "storeString",
      "outputs": [],
      "stateMutability": "nonpayable",
      "type": "function"
    },
    {
      "inputs": [
        {
          "internalType": "uint256",
          "name": "",
          "type": "uint256"
        }
      ],
      "name": "storedStrings",
      "outputs": [
        {
          "internalType": "string",
          "name": "",
          "type": "string"
        }
      ],
      "stateMutability": "view",
      "type": "function"
    }
  ],
  "bytecode": "0x6080604052348015600f57600080fd5b5061098d8061001f6000396000f3fe608060405234801561001057600080fd5b50600436106100415760003560e01c80631bb8305d1461004657806328460980146100625780638df9483114610080575b600080fd5b610060600480360381019061005b91906103fe565b6100b0565b005b61006a61011f565b6040516100779190610588565b60405180910390f35b61009a600480360381019061009591906105e0565b6101f8565b6040516100a79190610657565b60405180910390f35b6000819080600181540180825580915050600190039060005260206000200160009091909190915090816100e49190610885565b507fb44f9f8be0de67b8c4c09b6a9d75ba53dc041b8c6e532b764b50e486eacd38e4816040516101149190610657565b60405180910390a150565b60606000805480602002602001604051908101604052809291908181526020016000905b828210156101ef578382906000526020600020018054610162906106a8565b80601f016020809104026020016040519081016040528092919081815260200182805461018e906106a8565b80156101db5780601f106101b0576101008083540402835291602001916101db565b820191906000526020600020905b8154815290600101906020018083116101be57829003601f168201915b505050505081526020019060010190610143565b50505050905090565b6000818154811061020857600080fd5b906000526020600020016000915090508054610223906106a8565b80601f016020809104026020016040519081016040528092919081815260200182805461024f906106a8565b801561029c5780601f106102715761010080835404028352916020019161029c565b820191906000526020600020905b81548152906001019060200180831161027f57829003601f168201915b505050505081565b6000604051905090565b600080fd5b600080fd5b600080fd5b600080fd5b6000601f19601f8301169050919050565b7f4e487b7100000000000000000000000000000000000000000000000000000000600052604160045260246000fd5b61030b826102c2565b810181811067ffffffffffffffff8211171561032a576103296102d3565b5b80604052505050565b600061033d6102a4565b90506103498282610302565b919050565b600067ffffffffffffffff821115610369576103686102d3565b5b610372826102c2565b9050602081019050919050565b82818337600083830152505050565b60006103a161039c8461034e565b610333565b9050828152602081018484840111156103bd576103bc6102bd565b5b6103c884828561037f565b509392505050565b600082601f8301126103e5576103e46102b8565b5b81356103f584826020860161038e565b91505092915050565b600060208284031215610414576104136102ae565b5b600082013567ffffffffffffffff811115610432576104316102b3565b5b61043e848285016103d0565b91505092915050565b600081519050919050565b600082825260208201905092915050565b6000819050602082019050919050565b600081519050919050565b600082825260208201905092915050565b60005b838110156104ad578082015181840152602081019050610492565b60008484015250505050565b60006104c482610473565b6104ce818561047e565b93506104de81856020860161048f565b6104e7816102c2565b840191505092915050565b60006104fe83836104b9565b905092915050565b6000602082019050919050565b600061051e82610447565b6105288185610452565b93508360208202850161053a85610463565b8060005b85811015610576578484038952815161055785826104f2565b945061056283610506565b925060208a0199505060018101905061053e565b50829750879550505050505092915050565b600060208201905081810360008301526105a28184610513565b905092915050565b6000819050919050565b6105bd816105aa565b81146105c857600080fd5b50565b6000813590506105da816105b4565b92915050565b6000602082840312156105f6576105f56102ae565b5b6000610604848285016105cb565b91505092915050565b600082825260208201905092915050565b600061062982610473565b610633818561060d565b935061064381856020860161048f565b61064c816102c2565b840191505092915050565b60006020820190508181036000830152610671818461061e565b905092915050565b7f4e487b7100000000000000000000000000000000000000000000000000000000600052602260045260246000fd5b600060028204905060018216806106c057607f821691505b6020821081036106d3576106d2610679565b5b50919050565b60008190508160005260206000209050919050565b60006020601f8301049050919050565b600082821b905092915050565b60006008830261073b7fffffffffffffffffffffffffffffffffffffffffffffffffffffffffffffffff826106fe565b61074586836106fe565b95508019841693508086168417925050509392505050565b6000819050919050565b600061078261077d610778846105aa565b61075d565b6105aa565b9050919050565b6000819050919050565b61079c83610767565b6107b06107a882610789565b84845461070b565b825550505050565b600090565b6107c56107b8565b6107d0818484610793565b505050565b5b818110156107f4576107e96000826107bd565b6001810190506107d6565b5050565b601f8211156108395761080a816106d9565b610813846106ee565b81016020851015610822578190505b61083661082e856106ee565b8301826107d5565b50505b505050565b600082821c905092915050565b600061085c6000198460080261083e565b1980831691505092915050565b6000610875838361084b565b9150826002028217905092915050565b61088e82610473565b67ffffffffffffffff8111156108a7576108a66102d3565b5b6108b182546106a8565b6108bc8282856107f8565b600060209050601f8311600181146108ef57600084156108dd578287015190505b6108e78582610869565b86555061094f565b601f1984166108fd866106d9565b60005b8281101561092557848901518255600182019150602085019450602081019050610900565b86831015610942578489015161093e601f89168261084b565b8355505b6001600288020188555050505b50505050505056fea264697066735822122028a4e476f0a7ba2815eca9fb0b11df10857b9fcf3dc6b7f01619422af0ab6b8f64736f6c634300081c0033",
  "linkReferences": {},
  "deployedLinkReferences": {}
}